{
  "_format": "hh-sol-artifact-1",
  "contractName": "Bridge_on_Eth",
  "sourceName": "contracts/Bridges/Bridge_on_Eth.sol",
  "abi": [
    {
      "inputs": [
        {
          "internalType": "address",
          "name": "token",
          "type": "address"
        }
      ],
      "stateMutability": "nonpayable",
      "type": "constructor"
    },
    {
      "anonymous": false,
      "inputs": [
        {
          "indexed": false,
          "internalType": "address",
          "name": "from",
          "type": "address"
        },
        {
          "indexed": false,
          "internalType": "address",
          "name": "to",
          "type": "address"
        },
        {
          "indexed": false,
          "internalType": "uint256",
          "name": "amount",
          "type": "uint256"
        },
        {
          "indexed": false,
          "internalType": "uint256",
          "name": "date",
          "type": "uint256"
        },
        {
          "indexed": false,
          "internalType": "uint256",
          "name": "nonce",
          "type": "uint256"
        },
        {
          "indexed": false,
          "internalType": "bytes",
          "name": "signature",
          "type": "bytes"
        },
        {
          "indexed": true,
          "internalType": "enum BridgeBase.Step",
          "name": "step",
          "type": "uint8"
        }
      ],
      "name": "Transfer",
      "type": "event"
    },
    {
      "inputs": [
        {
          "internalType": "address",
          "name": "to",
          "type": "address"
        },
        {
          "internalType": "uint256",
          "name": "amount",
          "type": "uint256"
        },
        {
          "internalType": "uint256",
          "name": "nonce",
          "type": "uint256"
        },
        {
          "internalType": "bytes",
          "name": "signature",
          "type": "bytes"
        }
      ],
      "name": "burn",
      "outputs": [],
      "stateMutability": "nonpayable",
      "type": "function"
    },
    {
      "inputs": [
        {
          "internalType": "address",
          "name": "",
          "type": "address"
        },
        {
          "internalType": "uint256",
          "name": "",
          "type": "uint256"
        }
      ],
      "name": "caller_txnNonce",
      "outputs": [
        {
          "internalType": "bool",
          "name": "",
          "type": "bool"
        }
      ],
      "stateMutability": "view",
      "type": "function"
    },
    {
      "inputs": [
        {
          "internalType": "address",
          "name": "from",
          "type": "address"
        },
        {
          "internalType": "address",
          "name": "to",
          "type": "address"
        },
        {
          "internalType": "uint256",
          "name": "amount",
          "type": "uint256"
        },
        {
          "internalType": "uint256",
          "name": "nonce",
          "type": "uint256"
        },
        {
          "internalType": "bytes",
          "name": "signature",
          "type": "bytes"
        }
      ],
      "name": "mint",
      "outputs": [],
      "stateMutability": "nonpayable",
      "type": "function"
    },
    {
      "inputs": [],
      "name": "owner",
      "outputs": [
        {
          "internalType": "address",
          "name": "",
          "type": "address"
        }
      ],
      "stateMutability": "view",
      "type": "function"
    },
    {
      "inputs": [],
      "name": "token",
      "outputs": [
        {
          "internalType": "contract ITokenBase",
          "name": "",
          "type": "address"
        }
      ],
      "stateMutability": "view",
      "type": "function"
    }
  ],
  "bytecode": "0x608060405234801561001057600080fd5b50604051610fdb380380610fdb833981810160405281019061003291906100d0565b80336000806101000a81548173ffffffffffffffffffffffffffffffffffffffff021916908373ffffffffffffffffffffffffffffffffffffffff16021790555080600160006101000a81548173ffffffffffffffffffffffffffffffffffffffff021916908373ffffffffffffffffffffffffffffffffffffffff1602179055505050610142565b6000815190506100ca8161012b565b92915050565b6000602082840312156100e257600080fd5b60006100f0848285016100bb565b91505092915050565b60006101048261010b565b9050919050565b600073ffffffffffffffffffffffffffffffffffffffff82169050919050565b610134816100f9565b811461013f57600080fd5b50565b610e8a806101516000396000f3fe608060405234801561001057600080fd5b50600436106100575760003560e01c80634f81e36a1461005c578063525557021461008c5780638a94b05f146100a85780638da5cb5b146100c4578063fc0c546a146100e2575b600080fd5b610076600480360381019061007191906108c8565b610100565b6040516100839190610bdb565b60405180910390f35b6100a660048036038101906100a19190610836565b61012f565b005b6100c260048036038101906100bd9190610904565b6103fb565b005b6100cc610615565b6040516100d99190610b2d565b60405180910390f35b6100ea610639565b6040516100f79190610c3b565b60405180910390f35b60026020528160005260406000206020528060005260406000206000915091509054906101000a900460ff1681565b60006101668787878760405160200161014b9493929190610ab9565b6040516020818303038152906040528051906020012061065f565b90508673ffffffffffffffffffffffffffffffffffffffff1661018a82858561068f565b73ffffffffffffffffffffffffffffffffffffffff16146101e0576040517f08c379a00000000000000000000000000000000000000000000000000000000081526004016101d790610c56565b60405180910390fd5b600260008873ffffffffffffffffffffffffffffffffffffffff1673ffffffffffffffffffffffffffffffffffffffff168152602001908152602001600020600085815260200190815260200160002060009054906101000a900460ff161561027e576040517f08c379a000000000000000000000000000000000000000000000000000000000815260040161027590610c76565b60405180910390fd5b6001600260008973ffffffffffffffffffffffffffffffffffffffff1673ffffffffffffffffffffffffffffffffffffffff168152602001908152602001600020600086815260200190815260200160002060006101000a81548160ff021916908315150217905550600160009054906101000a900473ffffffffffffffffffffffffffffffffffffffff1673ffffffffffffffffffffffffffffffffffffffff166340c10f1987876040518363ffffffff1660e01b8152600401610344929190610bb2565b600060405180830381600087803b15801561035e57600080fd5b505af1158015610372573d6000803e3d6000fd5b505050506001808111156103af577f4e487b7100000000000000000000000000000000000000000000000000000000600052602160045260246000fd5b7fce5a9b86edd3b998c3948a7934c7ecf7dba73c4c5bcf56cf576bca4aa2beeb30888888428989896040516103ea9796959493929190610b48565b60405180910390a250505050505050565b600260003373ffffffffffffffffffffffffffffffffffffffff1673ffffffffffffffffffffffffffffffffffffffff168152602001908152602001600020600084815260200190815260200160002060009054906101000a900460ff1615610499576040517f08c379a000000000000000000000000000000000000000000000000000000000815260040161049090610c76565b60405180910390fd5b6001600260003373ffffffffffffffffffffffffffffffffffffffff1673ffffffffffffffffffffffffffffffffffffffff168152602001908152602001600020600085815260200190815260200160002060006101000a81548160ff021916908315150217905550600160009054906101000a900473ffffffffffffffffffffffffffffffffffffffff1673ffffffffffffffffffffffffffffffffffffffff16639dc29fac33866040518363ffffffff1660e01b815260040161055f929190610bb2565b600060405180830381600087803b15801561057957600080fd5b505af115801561058d573d6000803e3d6000fd5b50505050600060018111156105cb577f4e487b7100000000000000000000000000000000000000000000000000000000600052602160045260246000fd5b7fce5a9b86edd3b998c3948a7934c7ecf7dba73c4c5bcf56cf576bca4aa2beeb30338787428888886040516106069796959493929190610b48565b60405180910390a25050505050565b60008054906101000a900473ffffffffffffffffffffffffffffffffffffffff1681565b600160009054906101000a900473ffffffffffffffffffffffffffffffffffffffff1681565b6000816040516020016106729190610b07565b604051602081830303815290604052805190602001209050919050565b6000806000806106e286868080601f016020809104026020016040519081016040528093929190818152602001838380828437600081840152601f19601f82011690508083019250505050505050610749565b809450819550829350505050600187828585604051600081526020016040526040516107119493929190610bf6565b6020604051602081039080840390855afa158015610733573d6000803e3d6000fd5b5050506020604051035193505050509392505050565b60008060006041845114610792576040517f08c379a000000000000000000000000000000000000000000000000000000000815260040161078990610c56565b60405180910390fd5b60008060006020870151925060408701519150606087015160001a90508083839550955095505050509193909250565b6000813590506107d181610e26565b92915050565b60008083601f8401126107e957600080fd5b8235905067ffffffffffffffff81111561080257600080fd5b60208301915083600182028301111561081a57600080fd5b9250929050565b60008135905061083081610e3d565b92915050565b60008060008060008060a0878903121561084f57600080fd5b600061085d89828a016107c2565b965050602061086e89828a016107c2565b955050604061087f89828a01610821565b945050606061089089828a01610821565b935050608087013567ffffffffffffffff8111156108ad57600080fd5b6108b989828a016107d7565b92509250509295509295509295565b600080604083850312156108db57600080fd5b60006108e9858286016107c2565b92505060206108fa85828601610821565b9150509250929050565b60008060008060006080868803121561091c57600080fd5b600061092a888289016107c2565b955050602061093b88828901610821565b945050604061094c88828901610821565b935050606086013567ffffffffffffffff81111561096957600080fd5b610975888289016107d7565b92509250509295509295909350565b61098d81610cc3565b82525050565b6109a461099f82610cc3565b610d55565b82525050565b6109b381610cd5565b82525050565b6109c281610ce1565b82525050565b6109d96109d482610ce1565b610d67565b82525050565b60006109eb8385610c96565b93506109f8838584610d46565b610a0183610d8d565b840190509392505050565b610a1581610d22565b82525050565b6000610a28601c83610cb8565b9150610a3382610dab565b601c82019050919050565b6000610a4b601183610ca7565b9150610a5682610dd4565b602082019050919050565b6000610a6e601483610ca7565b9150610a7982610dfd565b602082019050919050565b610a8d81610d0b565b82525050565b610aa4610a9f82610d0b565b610d83565b82525050565b610ab381610d15565b82525050565b6000610ac58287610993565b601482019150610ad58286610993565b601482019150610ae58285610a93565b602082019150610af58284610a93565b60208201915081905095945050505050565b6000610b1282610a1b565b9150610b1e82846109c8565b60208201915081905092915050565b6000602082019050610b426000830184610984565b92915050565b600060c082019050610b5d600083018a610984565b610b6a6020830189610984565b610b776040830188610a84565b610b846060830187610a84565b610b916080830186610a84565b81810360a0830152610ba48184866109df565b905098975050505050505050565b6000604082019050610bc76000830185610984565b610bd46020830184610a84565b9392505050565b6000602082019050610bf060008301846109aa565b92915050565b6000608082019050610c0b60008301876109b9565b610c186020830186610aaa565b610c2560408301856109b9565b610c3260608301846109b9565b95945050505050565b6000602082019050610c506000830184610a0c565b92915050565b60006020820190508181036000830152610c6f81610a3e565b9050919050565b60006020820190508181036000830152610c8f81610a61565b9050919050565b600082825260208201905092915050565b600082825260208201905092915050565b600081905092915050565b6000610cce82610ceb565b9050919050565b60008115159050919050565b6000819050919050565b600073ffffffffffffffffffffffffffffffffffffffff82169050919050565b6000819050919050565b600060ff82169050919050565b6000610d2d82610d34565b9050919050565b6000610d3f82610ceb565b9050919050565b82818337600083830152505050565b6000610d6082610d71565b9050919050565b6000819050919050565b6000610d7c82610d9e565b9050919050565b6000819050919050565b6000601f19601f8301169050919050565b60008160601b9050919050565b7f19457468657265756d205369676e6564204d6573736167653a0a333200000000600082015250565b7f496e76616c6964207369676e6174757265000000000000000000000000000000600082015250565b7f74786e20616c7265616479206578656375746564000000000000000000000000600082015250565b610e2f81610cc3565b8114610e3a57600080fd5b50565b610e4681610d0b565b8114610e5157600080fd5b5056fea2646970667358221220a9937cc64cdd30a53cd15bb9e3e65a0dd2ae6b6be625d18bde84ec2fc04958d164736f6c63430008040033",
  "linkReferences": {},
  "deployedLinkReferences": {}
}