{
  "_format": "hh-sol-artifact-1",
  "contractName": "BridgeBase",
  "sourceName": "contracts/BridgeBase.sol",
  "abi": [
    {
      "inputs": [
        {
          "internalType": "address",
          "name": "_token",
          "type": "address"
        }
      ],
      "stateMutability": "nonpayable",
      "type": "constructor"
    },
    {
      "anonymous": false,
      "inputs": [
        {
          "indexed": false,
          "internalType": "address",
          "name": "from",
          "type": "address"
        },
        {
          "indexed": false,
          "internalType": "address",
          "name": "to",
          "type": "address"
        },
        {
          "indexed": false,
          "internalType": "uint256",
          "name": "amount",
          "type": "uint256"
        },
        {
          "indexed": false,
          "internalType": "uint256",
          "name": "date",
          "type": "uint256"
        },
        {
          "indexed": false,
          "internalType": "uint256",
          "name": "nonce",
          "type": "uint256"
        },
        {
          "indexed": false,
          "internalType": "bytes",
          "name": "signature",
          "type": "bytes"
        },
        {
          "indexed": true,
          "internalType": "enum BridgeBase.Step",
          "name": "step",
          "type": "uint8"
        }
      ],
      "name": "Transfer",
      "type": "event"
    },
    {
      "inputs": [
        {
          "internalType": "address",
          "name": "to",
          "type": "address"
        },
        {
          "internalType": "uint256",
          "name": "amount",
          "type": "uint256"
        },
        {
          "internalType": "uint256",
          "name": "nonce",
          "type": "uint256"
        },
        {
          "internalType": "bytes",
          "name": "signature",
          "type": "bytes"
        }
      ],
      "name": "burn",
      "outputs": [],
      "stateMutability": "nonpayable",
      "type": "function"
    },
    {
      "inputs": [
        {
          "internalType": "address",
          "name": "",
          "type": "address"
        },
        {
          "internalType": "uint256",
          "name": "",
          "type": "uint256"
        }
      ],
      "name": "caller_txnNonce",
      "outputs": [
        {
          "internalType": "bool",
          "name": "",
          "type": "bool"
        }
      ],
      "stateMutability": "view",
      "type": "function"
    },
    {
      "inputs": [
        {
          "internalType": "uint256",
          "name": "_nonce",
          "type": "uint256"
        }
      ],
      "name": "getNonce",
      "outputs": [
        {
          "internalType": "bool",
          "name": "",
          "type": "bool"
        }
      ],
      "stateMutability": "view",
      "type": "function"
    },
    {
      "inputs": [
        {
          "internalType": "address",
          "name": "from",
          "type": "address"
        },
        {
          "internalType": "address",
          "name": "to",
          "type": "address"
        },
        {
          "internalType": "uint256",
          "name": "amount",
          "type": "uint256"
        },
        {
          "internalType": "uint256",
          "name": "nonce",
          "type": "uint256"
        },
        {
          "internalType": "bytes",
          "name": "signature",
          "type": "bytes"
        }
      ],
      "name": "mint",
      "outputs": [],
      "stateMutability": "nonpayable",
      "type": "function"
    },
    {
      "inputs": [],
      "name": "owner",
      "outputs": [
        {
          "internalType": "address",
          "name": "",
          "type": "address"
        }
      ],
      "stateMutability": "view",
      "type": "function"
    },
    {
      "inputs": [],
      "name": "token",
      "outputs": [
        {
          "internalType": "contract ITokenBase",
          "name": "",
          "type": "address"
        }
      ],
      "stateMutability": "view",
      "type": "function"
    }
  ],
  "bytecode": "0x608060405234801561001057600080fd5b506040516110a23803806110a2833981810160405281019061003291906100ce565b336000806101000a81548173ffffffffffffffffffffffffffffffffffffffff021916908373ffffffffffffffffffffffffffffffffffffffff16021790555080600160006101000a81548173ffffffffffffffffffffffffffffffffffffffff021916908373ffffffffffffffffffffffffffffffffffffffff16021790555050610140565b6000815190506100c881610129565b92915050565b6000602082840312156100e057600080fd5b60006100ee848285016100b9565b91505092915050565b600061010282610109565b9050919050565b600073ffffffffffffffffffffffffffffffffffffffff82169050919050565b610132816100f7565b811461013d57600080fd5b50565b610f538061014f6000396000f3fe608060405234801561001057600080fd5b50600436106100625760003560e01c80633d46b819146100675780634f81e36a1461009757806352555702146100c75780638a94b05f146100e35780638da5cb5b146100ff578063fc0c546a1461011d575b600080fd5b610081600480360381019061007c9190610a24565b61013b565b60405161008e9190610ca4565b60405180910390f35b6100b160048036038101906100ac9190610968565b6101a2565b6040516100be9190610ca4565b60405180910390f35b6100e160048036038101906100dc91906108d6565b6101d1565b005b6100fd60048036038101906100f891906109a4565b6104e0565b005b6101076106fa565b6040516101149190610bf6565b60405180910390f35b61012561071e565b6040516101329190610d04565b60405180910390f35b6000600260003373ffffffffffffffffffffffffffffffffffffffff1673ffffffffffffffffffffffffffffffffffffffff168152602001908152602001600020600083815260200190815260200160002060009054906101000a900460ff169050919050565b60026020528160005260406000206020528060005260406000206000915091509054906101000a900460ff1681565b6000610208878787876040516020016101ed9493929190610b82565b60405160208183030381529060405280519060200120610744565b90508673ffffffffffffffffffffffffffffffffffffffff1661026f8285858080601f016020809104026020016040519081016040528093929190818152602001838380828437600081840152601f19601f82011690508083019250505050505050610774565b73ffffffffffffffffffffffffffffffffffffffff16146102c5576040517f08c379a00000000000000000000000000000000000000000000000000000000081526004016102bc90610d1f565b60405180910390fd5b600260008873ffffffffffffffffffffffffffffffffffffffff1673ffffffffffffffffffffffffffffffffffffffff168152602001908152602001600020600085815260200190815260200160002060009054906101000a900460ff1615610363576040517f08c379a000000000000000000000000000000000000000000000000000000000815260040161035a90610d3f565b60405180910390fd5b6001600260008973ffffffffffffffffffffffffffffffffffffffff1673ffffffffffffffffffffffffffffffffffffffff168152602001908152602001600020600086815260200190815260200160002060006101000a81548160ff021916908315150217905550600160009054906101000a900473ffffffffffffffffffffffffffffffffffffffff1673ffffffffffffffffffffffffffffffffffffffff166340c10f1987876040518363ffffffff1660e01b8152600401610429929190610c7b565b600060405180830381600087803b15801561044357600080fd5b505af1158015610457573d6000803e3d6000fd5b50505050600180811115610494577f4e487b7100000000000000000000000000000000000000000000000000000000600052602160045260246000fd5b7fce5a9b86edd3b998c3948a7934c7ecf7dba73c4c5bcf56cf576bca4aa2beeb30888888428989896040516104cf9796959493929190610c11565b60405180910390a250505050505050565b600260003373ffffffffffffffffffffffffffffffffffffffff1673ffffffffffffffffffffffffffffffffffffffff168152602001908152602001600020600084815260200190815260200160002060009054906101000a900460ff161561057e576040517f08c379a000000000000000000000000000000000000000000000000000000000815260040161057590610d3f565b60405180910390fd5b6001600260003373ffffffffffffffffffffffffffffffffffffffff1673ffffffffffffffffffffffffffffffffffffffff168152602001908152602001600020600085815260200190815260200160002060006101000a81548160ff021916908315150217905550600160009054906101000a900473ffffffffffffffffffffffffffffffffffffffff1673ffffffffffffffffffffffffffffffffffffffff16639dc29fac33866040518363ffffffff1660e01b8152600401610644929190610c7b565b600060405180830381600087803b15801561065e57600080fd5b505af1158015610672573d6000803e3d6000fd5b50505050600060018111156106b0577f4e487b7100000000000000000000000000000000000000000000000000000000600052602160045260246000fd5b7fce5a9b86edd3b998c3948a7934c7ecf7dba73c4c5bcf56cf576bca4aa2beeb30338787428888886040516106eb9796959493929190610c11565b60405180910390a25050505050565b60008054906101000a900473ffffffffffffffffffffffffffffffffffffffff1681565b600160009054906101000a900473ffffffffffffffffffffffffffffffffffffffff1681565b6000816040516020016107579190610bd0565b604051602081830303815290604052805190602001209050919050565b600080600080610783856107e9565b809450819550829350505050600186828585604051600081526020016040526040516107b29493929190610cbf565b6020604051602081039080840390855afa1580156107d4573d6000803e3d6000fd5b50505060206040510351935050505092915050565b60008060006041845114610832576040517f08c379a000000000000000000000000000000000000000000000000000000000815260040161082990610d1f565b60405180910390fd5b60008060006020870151925060408701519150606087015160001a90508083839550955095505050509193909250565b60008135905061087181610eef565b92915050565b60008083601f84011261088957600080fd5b8235905067ffffffffffffffff8111156108a257600080fd5b6020830191508360018202830111156108ba57600080fd5b9250929050565b6000813590506108d081610f06565b92915050565b60008060008060008060a087890312156108ef57600080fd5b60006108fd89828a01610862565b965050602061090e89828a01610862565b955050604061091f89828a016108c1565b945050606061093089828a016108c1565b935050608087013567ffffffffffffffff81111561094d57600080fd5b61095989828a01610877565b92509250509295509295509295565b6000806040838503121561097b57600080fd5b600061098985828601610862565b925050602061099a858286016108c1565b9150509250929050565b6000806000806000608086880312156109bc57600080fd5b60006109ca88828901610862565b95505060206109db888289016108c1565b94505060406109ec888289016108c1565b935050606086013567ffffffffffffffff811115610a0957600080fd5b610a1588828901610877565b92509250509295509295909350565b600060208284031215610a3657600080fd5b6000610a44848285016108c1565b91505092915050565b610a5681610d8c565b82525050565b610a6d610a6882610d8c565b610e1e565b82525050565b610a7c81610d9e565b82525050565b610a8b81610daa565b82525050565b610aa2610a9d82610daa565b610e30565b82525050565b6000610ab48385610d5f565b9350610ac1838584610e0f565b610aca83610e56565b840190509392505050565b610ade81610deb565b82525050565b6000610af1601c83610d81565b9150610afc82610e74565b601c82019050919050565b6000610b14601183610d70565b9150610b1f82610e9d565b602082019050919050565b6000610b37601483610d70565b9150610b4282610ec6565b602082019050919050565b610b5681610dd4565b82525050565b610b6d610b6882610dd4565b610e4c565b82525050565b610b7c81610dde565b82525050565b6000610b8e8287610a5c565b601482019150610b9e8286610a5c565b601482019150610bae8285610b5c565b602082019150610bbe8284610b5c565b60208201915081905095945050505050565b6000610bdb82610ae4565b9150610be78284610a91565b60208201915081905092915050565b6000602082019050610c0b6000830184610a4d565b92915050565b600060c082019050610c26600083018a610a4d565b610c336020830189610a4d565b610c406040830188610b4d565b610c4d6060830187610b4d565b610c5a6080830186610b4d565b81810360a0830152610c6d818486610aa8565b905098975050505050505050565b6000604082019050610c906000830185610a4d565b610c9d6020830184610b4d565b9392505050565b6000602082019050610cb96000830184610a73565b92915050565b6000608082019050610cd46000830187610a82565b610ce16020830186610b73565b610cee6040830185610a82565b610cfb6060830184610a82565b95945050505050565b6000602082019050610d196000830184610ad5565b92915050565b60006020820190508181036000830152610d3881610b07565b9050919050565b60006020820190508181036000830152610d5881610b2a565b9050919050565b600082825260208201905092915050565b600082825260208201905092915050565b600081905092915050565b6000610d9782610db4565b9050919050565b60008115159050919050565b6000819050919050565b600073ffffffffffffffffffffffffffffffffffffffff82169050919050565b6000819050919050565b600060ff82169050919050565b6000610df682610dfd565b9050919050565b6000610e0882610db4565b9050919050565b82818337600083830152505050565b6000610e2982610e3a565b9050919050565b6000819050919050565b6000610e4582610e67565b9050919050565b6000819050919050565b6000601f19601f8301169050919050565b60008160601b9050919050565b7f19457468657265756d205369676e6564204d6573736167653a0a333200000000600082015250565b7f496e76616c6964207369676e6174757265000000000000000000000000000000600082015250565b7f74786e20616c7265616479206578656375746564000000000000000000000000600082015250565b610ef881610d8c565b8114610f0357600080fd5b50565b610f0f81610dd4565b8114610f1a57600080fd5b5056fea2646970667358221220abb9c7890a0f095aa137a10a4ce3d5db60ae0c32eaccdc31740e5d8d69184eb864736f6c63430008040033",
  "linkReferences": {},
  "deployedLinkReferences": {}
}