{
  "_format": "hh-sol-artifact-1",
  "contractName": "Bridge_on_Bnb",
  "sourceName": "contracts/Bridges/Bridge_on_Bnb.sol",
  "abi": [
    {
      "inputs": [
        {
          "internalType": "address",
          "name": "token",
          "type": "address"
        }
      ],
      "stateMutability": "nonpayable",
      "type": "constructor"
    },
    {
      "anonymous": false,
      "inputs": [
        {
          "indexed": true,
          "internalType": "address",
          "name": "to",
          "type": "address"
        },
        {
          "indexed": false,
          "internalType": "uint256",
          "name": "amount",
          "type": "uint256"
        },
        {
          "indexed": false,
          "internalType": "uint256",
          "name": "date",
          "type": "uint256"
        },
        {
          "indexed": true,
          "internalType": "uint256",
          "name": "nonce",
          "type": "uint256"
        },
        {
          "indexed": false,
          "internalType": "bytes",
          "name": "signature",
          "type": "bytes"
        },
        {
          "indexed": true,
          "internalType": "enum BridgeBase.Step",
          "name": "step",
          "type": "uint8"
        }
      ],
      "name": "Transfer",
      "type": "event"
    },
    {
      "inputs": [
        {
          "internalType": "uint256",
          "name": "amount",
          "type": "uint256"
        },
        {
          "internalType": "uint256",
          "name": "nonce",
          "type": "uint256"
        },
        {
          "internalType": "bytes",
          "name": "signature",
          "type": "bytes"
        }
      ],
      "name": "burn",
      "outputs": [],
      "stateMutability": "nonpayable",
      "type": "function"
    },
    {
      "inputs": [
        {
          "internalType": "address",
          "name": "",
          "type": "address"
        },
        {
          "internalType": "uint256",
          "name": "",
          "type": "uint256"
        }
      ],
      "name": "caller_txnNonce",
      "outputs": [
        {
          "internalType": "bool",
          "name": "",
          "type": "bool"
        }
      ],
      "stateMutability": "view",
      "type": "function"
    },
    {
      "inputs": [
        {
          "internalType": "uint256",
          "name": "_nonce",
          "type": "uint256"
        }
      ],
      "name": "getNonce",
      "outputs": [
        {
          "internalType": "bool",
          "name": "",
          "type": "bool"
        }
      ],
      "stateMutability": "view",
      "type": "function"
    },
    {
      "inputs": [
        {
          "internalType": "uint256",
          "name": "amount",
          "type": "uint256"
        },
        {
          "internalType": "uint256",
          "name": "nonce",
          "type": "uint256"
        },
        {
          "internalType": "bytes",
          "name": "signature",
          "type": "bytes"
        }
      ],
      "name": "mint",
      "outputs": [],
      "stateMutability": "nonpayable",
      "type": "function"
    },
    {
      "inputs": [],
      "name": "owner",
      "outputs": [
        {
          "internalType": "address",
          "name": "",
          "type": "address"
        }
      ],
      "stateMutability": "view",
      "type": "function"
    },
    {
      "inputs": [],
      "name": "token",
      "outputs": [
        {
          "internalType": "contract ITokenBase",
          "name": "",
          "type": "address"
        }
      ],
      "stateMutability": "view",
      "type": "function"
    }
  ],
  "bytecode": "0x608060405234801561001057600080fd5b5060405161101a38038061101a833981810160405281019061003291906100d0565b80336000806101000a81548173ffffffffffffffffffffffffffffffffffffffff021916908373ffffffffffffffffffffffffffffffffffffffff16021790555080600160006101000a81548173ffffffffffffffffffffffffffffffffffffffff021916908373ffffffffffffffffffffffffffffffffffffffff1602179055505050610142565b6000815190506100ca8161012b565b92915050565b6000602082840312156100e257600080fd5b60006100f0848285016100bb565b91505092915050565b60006101048261010b565b9050919050565b600073ffffffffffffffffffffffffffffffffffffffff82169050919050565b610134816100f9565b811461013f57600080fd5b50565b610ec9806101516000396000f3fe608060405234801561001057600080fd5b50600436106100625760003560e01c806308dc9f42146100675780633d46b819146100835780634f81e36a146100b357806380a5a371146100e35780638da5cb5b146100ff578063fc0c546a1461011d575b600080fd5b610081600480360381019061007c9190610926565b61013b565b005b61009d600480360381019061009891906108fd565b610428565b6040516100aa9190610b91565b60405180910390f35b6100cd60048036038101906100c891906108c1565b61048f565b6040516100da9190610b91565b60405180910390f35b6100fd60048036038101906100f89190610926565b6104be565b005b6101076106e9565b6040516101149190610b4d565b60405180910390f35b61012561070d565b6040516101329190610bf1565b60405180910390f35b60003390508073ffffffffffffffffffffffffffffffffffffffff166101a782878787878080601f016020809104026020016040519081016040528093929190818152602001838380828437600081840152601f19601f82011690508083019250505050505050610733565b73ffffffffffffffffffffffffffffffffffffffff16146101fd576040517f08c379a00000000000000000000000000000000000000000000000000000000081526004016101f490610c2c565b60405180910390fd5b600260008273ffffffffffffffffffffffffffffffffffffffff1673ffffffffffffffffffffffffffffffffffffffff168152602001908152602001600020600085815260200190815260200160002060009054906101000a900460ff161561029b576040517f08c379a000000000000000000000000000000000000000000000000000000000815260040161029290610c4c565b60405180910390fd5b6001600260008373ffffffffffffffffffffffffffffffffffffffff1673ffffffffffffffffffffffffffffffffffffffff168152602001908152602001600020600086815260200190815260200160002060006101000a81548160ff021916908315150217905550600160009054906101000a900473ffffffffffffffffffffffffffffffffffffffff1673ffffffffffffffffffffffffffffffffffffffff166340c10f1982876040518363ffffffff1660e01b8152600401610361929190610b68565b600060405180830381600087803b15801561037b57600080fd5b505af115801561038f573d6000803e3d6000fd5b505050506001808111156103cc577f4e487b7100000000000000000000000000000000000000000000000000000000600052602160045260246000fd5b848273ffffffffffffffffffffffffffffffffffffffff167fe35331b3d600a02d355406b7d7861a73aec30cb22b86bee6933937f4ae6e265b884288886040516104199493929190610c6c565b60405180910390a45050505050565b6000600260003373ffffffffffffffffffffffffffffffffffffffff1673ffffffffffffffffffffffffffffffffffffffff168152602001908152602001600020600083815260200190815260200160002060009054906101000a900460ff169050919050565b60026020528160005260406000206020528060005260406000206000915091509054906101000a900460ff1681565b600260003373ffffffffffffffffffffffffffffffffffffffff1673ffffffffffffffffffffffffffffffffffffffff168152602001908152602001600020600084815260200190815260200160002060009054906101000a900460ff161561055c576040517f08c379a000000000000000000000000000000000000000000000000000000000815260040161055390610c4c565b60405180910390fd5b6001600260003373ffffffffffffffffffffffffffffffffffffffff1673ffffffffffffffffffffffffffffffffffffffff168152602001908152602001600020600085815260200190815260200160002060006101000a81548160ff021916908315150217905550600160009054906101000a900473ffffffffffffffffffffffffffffffffffffffff1673ffffffffffffffffffffffffffffffffffffffff16639dc29fac33866040518363ffffffff1660e01b8152600401610622929190610b68565b600060405180830381600087803b15801561063c57600080fd5b505af1158015610650573d6000803e3d6000fd5b505050506000600181111561068e577f4e487b7100000000000000000000000000000000000000000000000000000000600052602160045260246000fd5b833373ffffffffffffffffffffffffffffffffffffffff167fe35331b3d600a02d355406b7d7861a73aec30cb22b86bee6933937f4ae6e265b874287876040516106db9493929190610c6c565b60405180910390a450505050565b60008054906101000a900473ffffffffffffffffffffffffffffffffffffffff1681565b600160009054906101000a900473ffffffffffffffffffffffffffffffffffffffff1681565b60006041825114610779576040517f08c379a000000000000000000000000000000000000000000000000000000000815260040161077090610c0c565b60405180910390fd5b60008060008088888860405160200161079493929190610aea565b6040516020818303038152906040528051906020012090506000816040516020016107bf9190610b27565b6040516020818303038152906040528051906020012090506020870151945060408701519350606087015160001a9250600181848787604051600081526020016040526040516108129493929190610bac565b6020604051602081039080840390855afa158015610834573d6000803e3d6000fd5b5050506020604051035195505050505050949350505050565b60008135905061085c81610e65565b92915050565b60008083601f84011261087457600080fd5b8235905067ffffffffffffffff81111561088d57600080fd5b6020830191508360018202830111156108a557600080fd5b9250929050565b6000813590506108bb81610e7c565b92915050565b600080604083850312156108d457600080fd5b60006108e28582860161084d565b92505060206108f3858286016108ac565b9150509250929050565b60006020828403121561090f57600080fd5b600061091d848285016108ac565b91505092915050565b6000806000806060858703121561093c57600080fd5b600061094a878288016108ac565b945050602061095b878288016108ac565b935050604085013567ffffffffffffffff81111561097857600080fd5b61098487828801610862565b925092505092959194509250565b61099b81610cd9565b82525050565b6109b26109ad82610cd9565b610d6b565b82525050565b6109c181610ceb565b82525050565b6109d081610cf7565b82525050565b6109e76109e282610cf7565b610d7d565b82525050565b60006109f98385610cac565b9350610a06838584610d5c565b610a0f83610da3565b840190509392505050565b610a2381610d38565b82525050565b6000610a36601c83610cce565b9150610a4182610dc1565b601c82019050919050565b6000610a59601683610cbd565b9150610a6482610dea565b602082019050919050565b6000610a7c601183610cbd565b9150610a8782610e13565b602082019050919050565b6000610a9f601483610cbd565b9150610aaa82610e3c565b602082019050919050565b610abe81610d21565b82525050565b610ad5610ad082610d21565b610d99565b82525050565b610ae481610d2b565b82525050565b6000610af682866109a1565b601482019150610b068285610ac4565b602082019150610b168284610ac4565b602082019150819050949350505050565b6000610b3282610a29565b9150610b3e82846109d6565b60208201915081905092915050565b6000602082019050610b626000830184610992565b92915050565b6000604082019050610b7d6000830185610992565b610b8a6020830184610ab5565b9392505050565b6000602082019050610ba660008301846109b8565b92915050565b6000608082019050610bc160008301876109c7565b610bce6020830186610adb565b610bdb60408301856109c7565b610be860608301846109c7565b95945050505050565b6000602082019050610c066000830184610a1a565b92915050565b60006020820190508181036000830152610c2581610a4c565b9050919050565b60006020820190508181036000830152610c4581610a6f565b9050919050565b60006020820190508181036000830152610c6581610a92565b9050919050565b6000606082019050610c816000830187610ab5565b610c8e6020830186610ab5565b8181036040830152610ca18184866109ed565b905095945050505050565b600082825260208201905092915050565b600082825260208201905092915050565b600081905092915050565b6000610ce482610d01565b9050919050565b60008115159050919050565b6000819050919050565b600073ffffffffffffffffffffffffffffffffffffffff82169050919050565b6000819050919050565b600060ff82169050919050565b6000610d4382610d4a565b9050919050565b6000610d5582610d01565b9050919050565b82818337600083830152505050565b6000610d7682610d87565b9050919050565b6000819050919050565b6000610d9282610db4565b9050919050565b6000819050919050565b6000601f19601f8301169050919050565b60008160601b9050919050565b7f19457468657265756d205369676e6564204d6573736167653a0a333200000000600082015250565b7f496e76616c6964207369676e61747572652073697a6500000000000000000000600082015250565b7f496e76616c6964207369676e6174757265000000000000000000000000000000600082015250565b7f74786e20616c7265616479206578656375746564000000000000000000000000600082015250565b610e6e81610cd9565b8114610e7957600080fd5b50565b610e8581610d21565b8114610e9057600080fd5b5056fea26469706673582212201950f311bca410e6e84502a594fd273a98370a836fe9fe5d80214b26b817fc7864736f6c63430008040033",
  "linkReferences": {},
  "deployedLinkReferences": {}
}